:020000040800F2
:100000009808002051020008B3190008931800084E
:10001000B1190008CF040008AF1B00080000000061
:10002000000000000000000000000000B7190008F8
:10003000DD04000800000000B5190008B919000827
:100040006B0200086B0200086B0200086B020008DC
:100050006B0200086B0200086B0200086B020008CC
:100060006B0200086B0200086B0200086B020008BC
:100070006B0200086B0200086B0200086B020008AC
:100080006B0200086B0200086B0200086B0200089C
:10009000D10400086B0200086B0200086B02000824
:1000A0006B020008611A00086B0200086B0200086E
:1000B0006B0200086B0200086B0200086B0200086C
:1000C0006B0200086B0200086B0200086B0200085C
:1000D0006B0200086B0200086B0200086B0200084C
:1000E0006B0200086B0200086B0200086B0200083C
:1000F0006B0200086B0200086B0200086B0200082C
:100100006B0200086B0200086B0200086B0200081B
:100110006B0200086B0200086B0200086B0200080B
:100120006B0200086B0200086B0200086B020008FB
:100130006B0200086B0200086B0200086B020008EB
:100140006B0200086B0200086B0200086B020008DB
:100150006B0200086B0200086B0200086B020008CB
:100160006B0200086B0200086B0200086B020008BB
:100170006B0200086B0200086B0200080000000020
:100180006B0200086B0200086B0200086B0200089B
:100190006B0200086B0200086B0200086B0200088B
:1001A00000000000000000006B02000800F002F8F0
:1001B00000F03EF80AA090E8000C82448344AAF1C3
:1001C0000107DA4501D100F033F8AFF2090EBAE8C1
:1001D0000F0013F0010F18BFFB1A43F0010318477B
:1001E0003428000054280000103A24BF78C878C191
:1001F000FAD8520724BF30C830C144BF04680C602D
:10020000704700000023002400250026103A28BF74
:1002100078C1FBD8520728BF30C148BF0B60704778
:100220001FB502F0D0FB00F007F91FBD10B510BDDF
:1002300000F014F91146FFF7F3FF01F0FBFE00F0A8
:1002400032F903B4FFF7F2FF03BC00F039F9000004
:100250000948804709480047FEE7FEE7FEE7FEE75A
:10026000FEE7FEE7FEE7FEE7FEE7FEE70448054996
:10027000054A064B70470000511A0008AD010008FE
:10028000980200209808002098040020980400207C
:1002900053EA020C00F069802DE9F04B4FF00006A4
:1002A000002B1FBFB3FA83F503FA05F424FA05F611
:1002B0005E4012BF1643B2FA82F502FA05F4C5F1A8
:1002C00020051EBF22FA05FC44EA0C04203556EA3C
:1002D000044C4FEA144418BF641C4FF000084FF060
:1002E0000009904271EB030C39D3002919BFB1FA10
:1002F00081F701FA07F6B0FA80F700FA07F6C7F1BE
:1003000020071EBF20FA07FC46EA0C062037B6FB82
:10031000F4FCA7EB0507103F07F01F0BCBF12006FD
:100320000CFA0BFB2CFA06F644BFB3460026202F2E
:10033000A4BF5E464FF0000B5BEA060C08BF4FF00F
:10034000010B19EB0B09ABFB027C48EB0608C01B49
:1003500006FB02CC0BFB03CC71EB0C01C1E70B4697
:10036000024641464846BDE8F08B13B54FF0000009
:100370004FF00001AFF30080BDE81C40704710B59E
:10038000203AC0F00B80B1E81850203AA0E818508D
:10039000B1E81850A0E81850BFF4F5AF5FEA027C4E
:1003A00024BFB1E81850A0E8185044BF18C918C0BD
:1003B000BDE810405FEA827C24BF51F8043B40F85E
:1003C000043B08BF7047D20728BF31F8023B48BF43
:1003D00011F8012B28BF20F8023B48BF00F8012B81
:1003E00070474FF0000200B51346944696462039F8
:1003F00022BFA0E80C50A0E80C50B1F12001BFF4DE
:10040000F7AF090728BFA0E80C5048BF0CC05DF843
:1004100004EB890028BF40F8042B08BF704748BF91
:1004200020F8022B11F0804F18BF00F8012B704705
:10043000704770477047000070B5064C7C44064D0D
:100440007D4403E0206820448047241DAC42F9D15C
:1004500070BD0000F4250000F4250000754600F092
:100460002BF8AE4605006946534620F00700854646
:1004700018B020B5FFF7FAFEBDE820404FF00006A7
:100480004FF000074FF000084FF0000B21F007017C
:10049000AC46ACE8C009ACE8C009ACE8C009ACE8BF
:1004A000C0098D46704710B50446AFF30080204662
:1004B000BDE81040FFF7C5BE004870473802002075
:1004C00001491820ABBEFEE7260002007047FEE798
:1004D000014800F082B90000C8010020704772B6E0
:1004E000FEE790F82020012A07D0022A05D0416AB1
:1004F00041F48021416201207047006842690A434B
:10050000426100207047F0B590F820500468A4685C
:10051000012D05D0022D03D0416A41F4802157E01E
:1005200014F0406F01D1E5004FD5C4F301640125FB
:10053000A5401D608D684FF4C0739DB1CE683543F2
:100540004E6845EAC605066803EB0417F5514FF4FB
:10055000C275076805EB04150E697E51097D0129F6
:1005600005D009E00E88CD6845EA4655EBE70168FD
:100570004E5946F480764E511179D579567941EA33
:10058000056195792D0445EA062529434FF4C67681
:10059000056806EB0416A9511178D57841EA056182
:1005A000957852782D0445EA022211434FF4C47520
:1005B000026805EB04155151006803EB0411425821
:1005C00042F0010242500020F0BD416A41F40011A6
:1005D00041620120F0BD000010B590F82020012AF2
:1005E00007D0022A05D0416A41F4802141620120EE
:1005F00010BD3B48D0F8002242F00102C0F80022B2
:10060000D0F8002222F47C52C0F80022D0F8002258
:100610004B6A42EA0322C0F800220A7D02F01F035F
:1006200001229A40D0F81C329343C0F81C32CB69A7
:10063000B3B9D0F80C329343C0F80C328C894B68B4
:1006400064F31F434C6900EBC404C4F840320C89C6
:100650000B6864F31F434C6900EBC404C4F84432D4
:10066000CB69012B16D1D0F80C321343C0F80C32F1
:100670000C884B6864F31F434C6900EBC404C4F856
:1006800040320C89CB6864F31F434C6900EBC4040F
:10069000C4F844328B69002BD0F804320ED01343D7
:1006A000C0F804320B69002BD0F8143208D0134381
:1006B000C0F81432096A012904D008E09343EFE737
:1006C0009343F5E7D0F81C121143C0F81C12D0F880
:1006D000001221F00101C0F80012002010BD00003E
:1006E00000640040704770B590F82040012C05D0A0
:1006F000022C03D0416A41F4802128E0046809B348
:100700002469A40720D04FF4D874056804EB0114C1
:100710002D5915F00405956005682D591AD0ED087E
:10072000556005682C5904F00204D4604FF4DA7463
:10073000056804EB01142E5906F00F06082E0CD3A1
:1007400008250DE0E468DCE7416A41F400114162EC
:10075000012070BD6D0D1560E3E72D5905F00F0503
:10076000156105682D59C5F30725956105682C5954
:10077000240C54614FF4DC72046802EB0112A4589B
:100780001C700468A458240A5C700468A458240CE3
:100790009C700468A258120EDA704FF4DE7204687E
:1007A00002EB0112A4581C710468A458240A5C715D
:1007B0000468A458240C9C710468A258120EDA71C3
:1007C000006829B1016941F020010161002070BD7C
:1007D000C16841F02001C160F8E72DE9F05F0546EE
:1007E000006800244669D0F804908768D0F80CB0FF
:1007F000D0F810A0D0F81880F10748D0F90714D02D
:1008000001218160B80703D5284600F0FAF90CE011
:10081000780702D54FF4006407E0380702D54FF49B
:10082000805402E0284600F0EBF9F80516D5296857
:100830004FF480708860B80503D5284600F0E3F9CE
:100840000CE0780502D544F4005407E0380502D5E1
:1008500044F4804402E0284600F0D4F9F80316D5A9
:1008600029684FF480308860B80303D5284600F02B
:10087000CCF90CE0780302D544F4004407E03803D7
:1008800002D544F4803402E0284600F0BDF9300778
:1008900007D55FEACB6004D52968102044F40074C2
:1008A000C86070074FF0080707D55FEA0B7004D5E2
:1008B0002868C760284600F057F9B00706D52868B1
:1008C000C068800702D0284600F050F9700607D5AE
:1008D0005FEACA6004D52968102044F48064086186
:1008E000B00607D55FEA0A7004D528680761284674
:1008F00000F056F9F00606D528680069800702D096
:10090000284600F04EF9B00308D55FEAC96005D566
:10091000296810204860284600F044F9F00307D504
:100920005FEA097004D528684760284600F06EF930
:10093000300446D55FEA497040D5F00504D55FEA3A
:10094000C87001D044F00104B00504D55FEA887096
:1009500001D544F00204700504D55FEA487001D562
:1009600044F00404300529D518F0700F26D008F0A3
:100970007000402815D006DC102809D020280AD0A5
:10098000302816D10AE050280ED0602811D10EE090
:1009900044F008040DE044F010040AE044F02004A0
:1009A00007E044F0400404E044F0800401E044F433
:1009B00080742868816921F07001816129680420B0
:1009C0004860002C05D0686A204368622846FFF71B
:1009D00089FEBDE8F09F70B5040003D094F82000B4
:1009E00010B104E0012070BD204600F081F82068BD
:1009F000016841F00101016000F024FA0546052676
:100A000004E000F01FFA401B0A2811D82068406853
:100A1000C007F6D02068016821F00201016000F0F3
:100A200011FA05460BE000F00DFA401B0A2806D922
:100A3000606A40F40030606284F82060D2E7206889
:100A400040688007EFD4207E0128206801683DD0EF
:100A500021F080010160607E01282068016838D0A3
:100A600021F040010160A07E01282068016833D098
:100A700021F020010160E07E0128206801682ED06D
:100A800041F010010160207F01282068016829D011
:100A900021F008010160607F01282068016824D0EE
:100AA00021F004010160D4E902010843D4E90412F1
:100AB000114308436168491E08432168C86100204A
:100AC0006062012084F82000002070BD41F08001A8
:100AD000C0E741F04001C5E741F02001CAE721F03D
:100AE0001001CFE741F00801D4E741F00401D9E754
:100AF00010B586B0044614216846FFF772FC17490A
:100B00002068884227D116480021026842F000720E
:100B10000260006800F0007005901148103802680B
:100B200042F0080202600068022200F0080005900E
:100B30000320CDE90210CDE90002092004906946A6
:100B4000084800F065F800220121142000F0E8F9BF
:100B5000142000F0D7F906B010BD0000006400407A
:100B600040380240000C024070470000094910B5AF
:100B700088420ED1084B094A00210648FFF7B3FD11
:100B8000002806D10548BDE810400349C43001F0F3
:100B90000FB910BDC801002004000020380000205B
:100BA000704770477047000070B5044690F8200009
:100BB000012804D0606A40F40020606218E002203E
:100BC00084F820002068016821F00101016000F034
:100BD00039F905460EE000BF00F034F9401B0A2841
:100BE00008D9606A40F400306062052084F8200073
:100BF000012070BD20684068C007EDD1606270BD03
:100C000070477047704770477047704770470000E3
:100C10002DE9F84FDFF8F8A10022012403254FF059
:100C20000F090AF1040BAAF1040E00BF0B6804FAC5
:100C300002F63340B34270D10F7907F00307012F5A
:100C400001D0022F16D187684FEA420805FA08FC46
:100C500027EA0C07D1F80CC00CFA08FC4CEA070C88
:100C6000C0F808C04768B7430E79C6F3001696402F
:100C70003E4346600E79F643B6070AD0C7684FEA8E
:100C8000420C05FA0CF6B7438E6806FA0CF63E43A2
:100C9000C6600E7906F00306022E10D1D60800EBCE
:100CA0008608D8F8206057074FEAD76C09FA0CF786
:100CB000BE430F6907FA0CF73743C8F8207006687F
:100CC0004FEA420C05FA0CF7BE430F7907F0030711
:100CD00007FA0CF7374307604E6816F4403F1CD004
:100CE0004C4E376847F480473760366822F0030778
:100CF00006F480460096484E07EB060CDCF80868C0
:100D000097073F0F09FA07F826EA0806DFF80C8173
:100D1000404503D14FF0000841E072E0DFF8008168
:100D2000404502D14FF0010839E0DFF8F880404536
:100D300002D14FF0020832E0DFF8EC80404502D1EA
:100D40004FF003082BE0DFF8E480404502D14FF07C
:100D5000040824E0DFF8D880404502D14FF00508B0
:100D60001DE0DFF8D080404502D14FF0060816E0C4
:100D7000DFF8C480404502D14FF007080FE0DFF8EC
:100D8000BC80404502D14FF0080808E0DFF8B08091
:100D9000404502D14FF0090801E04FF00A0808FA77
:100DA00007F848EA0608CCF80888DAF800605746E1
:100DB000D1F804C09E435FEACC2C00D51E433E60B0
:100DC000DBF800605F46D1F804C09E435FEA8C2CDC
:100DD00000D51E433E60DEF800607746D1F804C0BF
:100DE0009E435FEA8C3C00D51E433E60084F083F9F
:100DF0003E68D1F804C09E435FEACC3C00D51E4358
:100E00003E60521C102AFFF411AFBDE8F88F0000BD
:100E1000083C0140443802400030014000000240DC
:100E20000004024000080240000C02400010024092
:100E30000014024000180240001C02400020024042
:100E4000002402400148806870470000280000200C
:100E500002488168027811448160704728000020B0
:100E60000B4810B5016841F400710160016841F45C
:100E700080610160016841F480710160032000F02D
:100E80006FF80F2000F006F800F024F8002010BDE5
:100E9000003C024070B50D4D04464FF47A7128783D
:100EA000B1FBF0F00A490968B1FBF0F000F0ECFA90
:100EB00048B9102C07D200222146501E00F030F80D
:100EC00000206C6070BD012070BD00002800002073
:100ED000340000200A4808B5016841F480410160EF
:100EE000006800F4804000900548001F016841F050
:100EF00080510160006800F08050009008BD000043
:100F000044380240002809DB00F01F020121914013
:100F10004009800000F1E020C0F800117047000097
:100F2000F0B40E4B1B680C46C3F30223C3F1070554
:100F3000042D00D90425191D072901D2002300E042
:100F4000DB1E012606FA05F1491E214099409E400C
:100F5000761E16403143F0BC01F00CB80CED00E0F9
:100F6000064900F0070208684FF6FF03184040EA00
:100F70000220034A10430860704700000CED00E0B7
:100F80000000FA052DE9F0470E46050065D0DFF8B0
:100F90001481D8F80000F7B200F00F00B04207D279
:100FA00088F80070D8F8000000F00F00B04254D16B
:100FB00028683D4C810712D5400703D5206840F4CE
:100FC000E05020602878000703D5206840F4604096
:100FD00020602068A96820F0F0000843206028788D
:100FE000C0072DD0304968680839012812D002287E
:100FF00013D0032811D00968890700292DDA216848
:1010000021F0030101432160FFF71CFF814641F2FB
:10101000883A0EE009688903EFE709688901ECE77F
:10102000FFF710FFA0EB0901514502D90320BDE8ED
:10103000F0872068696800F00C00B0EB810FEFD1F9
:10104000D8F80010404601F00F01B14207D90770EF
:10105000006800F00F00B04201D00120E7E72878D7
:10106000400705D52068E96820F4E0500843206077
:101070002878000706D52068296920F4604040EAF6
:10108000C100206000F018F82168084AC1F303117C
:10109000515CC8400649086006480068FFF7FAFE40
:1010A0000020C4E7003C024008380240042A00083F
:1010B000340000202C000020154810B5006810F006
:1010C0000C02144813D01449042A0FD0082A0ED158
:1010D0000F4C241F2268236802F03F025B0207D5F1
:1010E0002068C0F38810A0FB010106E0084610BD8F
:1010F0002168C1F38811A1FB00010023FFF7C8F8A4
:101100002168C1F30141491C4900B0FBF1F010BD59
:10111000083802400024F400001BB7002DE9F84F06
:1011200004006ED02078DFF84C93C007A9F10405C5
:101130004AD009F104000168C1F38101012908D0F6
:101140000068C0F3810002280AD1D9F800004002EB
:1011500006D52868800337D560680028E1D033E0E1
:101160006068B0F5803F10D0B0F5A02F286810D08F
:1011700020F480302860286820F48020286060688F
:10118000A8B1FFF75FFE06460DE0286840F4803006
:10119000F4E740F480202860F7E700BFFFF752FE35
:1011A000801B642873D828688003F7D50CE0FFF70C
:1011B00049FE064605E000BFFFF744FE801B642899
:1011C000F0D828688003F7D42078DFF8AC82800755
:1011D0004FF0000A3ED5A748001D016811F00C0F22
:1011E00008D00068C0F3810002280BD1D9F80000B4
:1011F000400207D42868800716D5E068012800D18E
:1012000012E033E1E068B8B10120C8F80000FFF750
:1012100019FE064605E000BFFFF714FE801B0228FA
:10122000C0D828688007F7D52868216920F0F80021
:1012300040EAC10028600DE0C8F800A0FFF702FEF8
:10124000064604E0FFF7FEFD801B02281FD8286831
:101250008007F7D42078000722D5864F8748616938
:10126000703771B101210160FFF7ECFD064604E023
:10127000FFF7E8FD801B022809D838688007F7D5FA
:101280000EE0C0F800A0FFF7DDFD064605E082E0B5
:10129000FFF7D8FD801B02287DD838688007F7D477
:1012A0002078400768D5DFF8CCB100270BF13C0B64
:1012B000DBF80000C0000BD4DBF8001041F08051D7
:1012C000CBF80010DBF80000012700F08050009000
:1012D0006B4E3068C00510D4306840F480703060C8
:1012E000FFF7B0FD009005E0FFF7ACFD0099401A54
:1012F000022850D83068C005F6D55E4EA0686C361E
:1013000001280FD00528306810D020F0010030608F
:10131000306820F004003060A068B8B1FFF792FD9B
:1013200000900FE0306840F00100F4E740F0040066
:101330003060F7E7FFF786FD0099411A41F28830E7
:10134000814266D830688007F4D50EE0FFF77AFD59
:10135000009007E0FFF776FD0099411A41F28830CE
:10136000814256D830688007F4D42FB1DBF80010E2
:1013700021F08051CBF80010A069C8B33D49091D88
:101380000968C1F3810102294AD00228504607D0DA
:10139000C8F8600000E03CE0FFF754FD04463BE085
:1013A0004746C8F86000FFF74DFD064605E000BF60
:1013B000FFF748FD801B02282BD828688001F7D44E
:1013C000D4E907010843A16A2E4A490802EB01410A
:1013D000626A41EA8211084394F82C1040EA0161E4
:1013E000C9F8001001203866FFF72CFD044606E01E
:1013F0003EE000BFFFF726FD001B022809D8286841
:101400008001F7D534E000BFFFF71CFD001B022868
:1014100002D90320BDE8F88F28688001F4D427E0C2
:101420000128F7D0D9F80000E26900F48001914268
:101430001CD1226A00F03F01914217D147F6C071DA
:10144000626A0140B1EB821F10D1A26A4FF0FF33F4
:1014500000F4403103EB5202B1EB024F06D194F895
:101460002C1000F07060B0EB016F01D00120D1E7CB
:101470000020CFE70438024000004742800E474278
:10148000007000400000FFFF10B5401EB0F1807FEB
:1014900001D3012010BD4FF0E02460610F216017DF
:1014A00000F068FD0020A06107202061002010BD31
:1014B0007047704770B590F83C20012A32D0012463
:1014C00080F83C40022280F83D2003685A689D68FD
:1014D00022F070060A6832435A60134B02689A423F
:1014E00014D0B2F1804F11D0104B9A420ED0104B55
:1014F0009A420BD00F4B9A4208D00F4B9A4205D01C
:101500000E4B9A4202D00E4B9A4204D1496825F004
:1015100080031943916080F83D40002180F83C1021
:10152000084670BD022070BD00000140000400406C
:1015300000080040000C0040000401400040014051
:101540000018004010B5040003D094F83D0010B11D
:1015500007E0012010BD002084F83C00204600F088
:101560001FF8022084F83D00211D206800F07EFA5B
:10157000012084F8460084F83E0084F83F0084F897
:10158000400084F8410084F8420084F8430084F865
:10159000440084F8450084F83D00002010BD0000A0
:1015A00008B500680B49884212D10B48016841F028
:1015B000010101600068002200F001000090114666
:1015C0001920FFF7ADFCBDE808401920FFF79ABCD1
:1015D00008BD0000000001404438024090F83D1072
:1015E000012901D001207047022180F83D100168D7
:1015F000CA6842F00102CA6000681149884214D0EA
:10160000B0F1804F11D00F4988420ED00E49884268
:101610000BD00E49884208D00D49884205D00D49AB
:10162000884202D00C49884204D1816801F0070148
:10163000062903D0016841F00101016000207047D4
:10164000000001400004004000080040000C004081
:1016500000040140004001400018004070B50446FD
:1016600090F83C000025012817D0012684F83C6042
:10167000022084F83D002068826822F0770222F47C
:101680007F4282600868502838D00DDC20284FD077
:1016900005DC90B3102811D14AE0022070BD30283B
:1016A00046D040280AD13BE060282FD070280DD0CA
:1016B000B0F5805F03D0B0F5005F12D0012584F84B
:1016C0003D60002084F83C00284670BDCB68D1E91D
:1016D0000121206800F036FA2068816841F0770126
:1016E00009E0CB68D1E90121206800F02BFA2068DD
:1016F000816841F480418160E1E719E0CA68496886
:10170000206800F031FA5021206806E0CA68496874
:10171000206800F03AFA6021206800F01DFACEE758
:10172000CA684968206800F01FFA40212068F4E781
:10173000226801461046F0E770472DE9F041044663
:101740000068C66805694FF00007A90713D5B107FF
:1017500011D5F91E0161012020772068806980077A
:10176000204602D0FFF7E8FF04E000F07EF82046B4
:1017700000F07CF82777680716D5700714D5216824
:101780006FF004000861022020772068806910F45F
:10179000407F204602D0FFF7CFFF04E000F065F85D
:1017A000204600F063F82777280715D5300713D5B2
:1017B00021686FF008000861042020772068C06964
:1017C0008007204602D0FFF7B7FF04E000F04DF895
:1017D000204600F04BF82777E80616D5F00614D51A
:1017E00021686FF010000861082020772068C06928
:1017F00010F4407F204602D0FFF79EFF04E000F087
:1018000034F8204600F032F82777E80708D0F007D0
:1018100006D021686FF001000861204600F028F82A
:10182000280608D5300606D521686FF080000861CB
:101830002046FFF73DFE680608D5700606D52168EC
:101840006FF040000861204600F022F8A8060AD593
:10185000B00608D521686FF0200008612046BDE879
:10186000F041FFF726BEBDE8F081704770470000E9
:101870000449884205D1044890ED000A034800F06D
:1018800023BB7047F001002000000020FC00002076
:101890007047FEE7104810B50E4901600321416012
:1018A00000214FF410228160C0E903124FF40012AE
:1018B00042610176012242768176C17601774177D5
:1018C000FFF789F8002803D0BDE81040FEF707BEF7
:1018D00010BD000000640040C801002000B587B0C2
:1018E00014216846FEF77DFD15480021026842F08C
:1018F00001020260026802F001020592026842F0F1
:1019000008020260026802F008020592026842F0D2
:1019100080020260026802F080020592026842F0D2
:10192000020202600068029100F0020005900420AB
:10193000CDE9000169460348FFF76AF907B000BD29
:10194000303802400004024010B586B00024174829
:101950000094019402940394049413490594016043
:10196000D221C0E901144FF4C871C0E903144461E5
:101970008461FFF7E7FD08B1FEF7B1FD4FF4805039
:10198000009069460948FFF769FE08B1FEF7A7FD18
:10199000049404A905480594FFF78CFD002801D0A4
:1019A000FEF79DFD06B010BD00000140F0010020D3
:1019B000FEE7FEE770477047FFF74ABA30B593B0CD
:1019C00030216846FEF70DFD14210CA8FEF709FD35
:1019D0001D480025016841F080510160006800F059
:1019E000805011901948016821F4404141F4804130
:1019F00001600068022400F4404011900120009032
:101A0000000401908001CDE906400C200890A82038
:101A1000CDE9090404200B906846FFF77FFB08B16D
:101A200072B6FEE70CA90F2081E831004FF4805018
:101A3000CDE90F0502210CA8FFF7A4FA002801D078
:101A400072B6FEE713B030BD40380240007000406F
:101A50000248016841F470010160704788ED00E0C0
:101A60000148FFF76ABE0000F0010020F0B50268EF
:101A7000294C2A4D2A4E2B4F2B4B4FF0804CA04225
:101A800009D0604507D0A84205D0B04203D0B84283
:101A900001D0984204D122F0700E4A6842EA0E0248
:101AA000A0421BD0604519D0A84217D0B04215D033
:101AB000B84213D0984211D01C4DA8420ED01C4DF4
:101AC000A8420BD01B4DA84208D01B4DA84205D000
:101AD0001A4DA84202D01A4DA84203D122F44075F3
:101AE000CA682A434D6922F080022A4302608A684C
:101AF000C2620A688262A04201D0984201D109699B
:101B00000163012141610169C90703D0016921F025
:101B100001010161F0BD000000000140000400402F
:101B200000080040000C004000040140004001405B
:101B3000004401400048014000180040001C0040E3
:101B40000020004010B5846842EA032224F47F4458
:101B50000A432243826010BD826822F070020A4369
:101B600042F007018160704710B5036A046A24F0EF
:101B700001040462846924F0F00444EA021423F0AE
:101B80000A020A438461026210BD10B5036A046A46
:101B900024F010040462846923F0A00324F4704448
:101BA00044EA023243EA01118261016210BDFEE79C
:101BB00000B50246B0EE412A383000F059F8F0EE98
:101BC000420A10465DF804EB00F052B80FB410B5AD
:101BD00000F0CCF8383000F0C9F838380446382224
:101BE00003A9FEF7CCFB382211A904F13800FEF757
:101BF000C6FB204610BC5DF814FB000010B52DEDAF
:101C0000028B8EB000F0B2F8383000F0AFF89FEDE4
:101C1000178AA0F138046846B0EE482AF0EE481A58
:101C2000B0EE481AF0EE480AB0EE480A00F07EF82E
:101C3000014638222046FEF7A2FBB0EE482AF0EE1D
:101C4000481AB0EE481AF0EE480AB0EE480A684664
:101C500000F06CF80146382204F13800FEF78FFBE3
:101C60000EB02046BDEC028B10BD0000000000004D
:101C700000B590ED001A014680ED011A80ED030ACF
:101C800030EE600AC0ED040A80ED000AD0ED020AD1
:101C900030EE800A80ED020A90ED0B1AF1EE410A57
:101CA00000F034F881ED020AD1ED050A91ED001A39
:101CB00060EE810AC1ED080AD1ED061A21EE800A14
:101CC00081ED090AD1ED011A30EE800A31EE611A78
:101CD000D1ED071A21EE211A81ED0A1A30EE010A20
:101CE00081ED0D0AD1ED0C0AB1EE601AB4EEC10A15
:101CF000F1EE10FA02D2B0EE410A00BDB4EEE00AF5
:101D0000F1EE10FAF9DDB0EE600A00BDB4EEE00AC3
:101D1000F1EE10FA02D2B0EE600A7047B4EEC10ADA
:101D2000F1EE10FAF9DDB0EE410A7047DFED0E2A50
:101D300000F11401C0ED022AC0ED032AC0ED042A0F
:101D4000C0ED082AC0ED092AC0ED0A2A80ED0B2A51
:101D5000C0ED0C1AC0ED0D2AC0ED002AC0ED012A1D
:101D600081EC030A70470000000000009FED0F0A9D
:101D700080ED020A80ED030A80ED040A80ED050A79
:101D800080ED060A80ED070A80ED080A80ED090A59
:101D900080ED0A0A80ED0B0A80ED0C0A80ED0D0A39
:101DA00080ED000A80ED010A70470000000000008D
:101DB00070B5044648880D4640BA00B200EE100ADD
:101DC00047F6FF73F3EE040AB8EEC00ADA4384ED77
:101DD000300A8888BBEE040A40BA01B2204600F0FF
:101DE00041F884ED310A94ED2B0ADFED1A0A84EDF7
:101DF0002C0A28889FED180A41BA41F6FF73002289
:101E0000204600F02FF884ED2B0AD4ED2C0A13495C
:101E100070EE600A10EE900AC4ED2D0A884203DDD0
:101E2000D4F8BC00401E07E010EE900A0C4988422E
:101E3000D4F8BC0002D9401CC4F8BC004FF4B47103
:101E4000484300EE900AF8EEE00A30EE800A84ED96
:101E50002E0A70BD0000B4430000000000003443AF
:101E6000000034C370B51D462DED068BB0EE408AE0
:101E7000144630EEC80A0E4610EE100A00F032FD8D
:101E800041EC190B281B00F02DFB41EC1A0B301B09
:101E900000F028FB53EC1A2B00F0CCF953EC192B73
:101EA00000F038FB41EC190B18EE100A00F01AFD97
:101EB00053EC192B00F016F900F0E2F8BDEC068B9C
:101EC00000EE100A70BD00000EB5002100910191D6
:101ED00090ED301AD0ED2B0A3830FFF769FEBDEED9
:101EE000C00A084902AB10EE100A6A460880010ACF
:101EF0008DF800108DF8010003490448FEF703FB3C
:101F00000EBD0000240000200C000020C8010020AD
:101F10000FB410B5FFF72AFF3830FFF76FFEB3EEAE
:101F2000030AA0F1380480ED1C0A382203A92046D8
:101F3000FEF725FA702211A904F13800FEF71FFA06
:101F40009FED0B0A002084ED2B0A84ED2C0A84ED12
:101F50002D0A84ED2E0AC4F8BC0084ED300A84ED0D
:101F6000310A84ED320A204610BC5DF814FB0000F3
:101F7000000000000907090E002804DB00F1E02042
:101F800080F80014704700F00F0000F1E02080F8A6
:101F9000141D704730B5B5B09FED202ADFED201A33
:101FA000B0EE001ADFED1F0AB3EE090A1E48FFF774
:101FB000BDFEDFED1E1ADFED1E0AB1EE040AB0EE23
:101FC000612AB0EE601A27A8FFF7B0FE014638225A
:101FD0000BA8FEF7D4F914492C220C310D466846A3
:101FE000FEF7CDF9104C04F1380094E80E001C3CCB
:101FF000FFF7ECFD702204F154010BA8FEF7BFF9C6
:102000002C2229466846FEF7BAF904F1C4001C34B4
:1020100094E80E00FFF77CFF35B030BD00007A4435
:1020200000401C459A99993F540000200000C84286
:10203000000000008AB0FEF713FFFFF7BFFCFFF7B8
:102040004DFCFFF727FCFFF77FFC0A48FFF7C6FAB5
:10205000282209496846FEF792F969460748FEF7C3
:10206000BBFA0648FEF7A0FD02210448FEF739FA44
:10207000FEE70000F0010020DC290008C801002074
:1020800021F00042A2F16052B2F5801F01F000433E
:1020900028BFD2F17F6C0BD95FEA001C43EAC20271
:1020A00042EB507018BF704728BF20F00100704706
:1020B000B2F5801FBCBF184670474FEA410C1CF5B3
:1020C000001F02D2084600F083BC70B500F0CCFAC5
:1020D00000000089FFF7F6BF4FF00040A0F5800038
:1020E0007047000010B591EA030F48BF83F000432A
:1020F00000F11683841A71EB030C05D2121943EB1D
:102100000C03001B61EB0C01DFF824E14FEA1154D2
:10211000A4EB135C1EEA430F18BF9EEA445F73D022
:1021200023EA0E03DCF1200E21EA045143F480136C
:1021300032D322FA0CFE10EB0E0023FA0CFE41EB18
:102140000E01CCF1200E03FA0EFE10EB0E0051F141
:102150000001B1F5801FCCF1200E32D201EB045109
:1021600012FA0EF2BDE8104058BF7047401C38BF4D
:102170005FEA420218BF7047002814BF20F0010038
:1021800041F100014FEA410313F5001F38BF7047CA
:10219000A1F1C04100F0B6BA012A43EB0302ACF151
:1021A000200CDCF11F0E32BF4FF0000E23FA0CF3AF
:1021B00010EB030041EB0451B4EB115FD0D0A1EB65
:1021C000045101F5801149085FEA300001EB045128
:1021D0000ED350F1000038BF12FA0EFE08D1BDE850
:1021E0001040C9E7401C38BF5FEA4202CAD1C3E7CA
:1021F000BDE810404FEA410313F5001F38BF704798
:10220000A1F1C04100F07EBA9EEA445F08D011EA15
:102210005E0FBDE8104004BF01F000410020704790
:10222000BDE8104070B500F01FFA00BF64FBBE3E71
:102230000000E0FF2DE9C04130B4DFF8A0C23CEA65
:10224000111418BF3CEA131400F0EC8081EA030576
:102250001CEA111444EAD57418BF1CEA131500F0E7
:10226000C780A4EB05044FF0004545EAC12145EACB
:10227000C32341EA505143EA525304F17F74994217
:1022800004F500344FEAC0204FEAC22208BF904252
:1022900000F09C804FEA13650FF24016765D4FEA1E
:1022A000134506FB05F7C7F1807706FB07F74FEAF2
:1022B000D737A7FB03687642C8F58038A7FB06CE60
:1022C00038BFA8F1010807FB08E64FF0000EA6FB97
:1022D000028CE6FB03CEDCF1000CCEF1004E38BFE1
:1022E000AEF1010EA6FB0C584FF000074FF00005B1
:1022F000E6FB0E87A1FB08C6A0FB07CE16EB0E0679
:1023000045F10005E1FB076515F1E04E7EBFA4F540
:1023100080345FEA46066D4116F1800745F10005FD
:102320004FEA17274FEA066647EA0567A6F1DE4639
:10233000B6F1805F4FEA15251FD9384624F0010C0D
:1023400005EBC471BCF1FE6F01EB0C1102D8F0BCBF
:10235000BDE8008124425CBF01F5801E9EEAC47F77
:1023600002D4F0BCBDE80081244238D4F0BCA1F115
:10237000C041BDE8004100F0C5B94FEAD22242EAAF
:1023800043524FEAD323A7FB02864FEAD02040EA0C
:10239000415007FB03661EEA0E0F4FEAD12105FBF1
:1023A000026658BFA6EB0056B6EB00564FEA520E37
:1023B0004EEAC37E18EB0E0E56EB530EBDD518EB4E
:1023C00002085E417F1C55F10005B6E74FF4801509
:1023D0004FF000074FF000064FF00008ADE7F0BCEB
:1023E0004FF0000001F1C04101F00041BDE8008163
:1023F00011EA0C1F0CEA131500D00CE013EA0C1FB5
:1024000000F025804FF00000F0BC81EA030101F0EC
:102410000041BDE80081F0BCBDE8004181EA030154
:1024200000F070B9F0BCBDE8004170B500F01CF9D7
:10243000097EFC3E00F007B881EA03014FF000007E
:1024400001F00041704781EA030100F05BB9F0BC84
:10245000BDE800414FF0000021497047FFFDFBF946
:10246000F7F5F4F2F0EEEDEBE9E8E6E4E3E1E0DEC7
:10247000DDDBDAD8D7D5D4D3D1D0CFCDCCCBCAC839
:10248000C7C6C5C4C2C1C0BFBEBDBCBBBAB9B8B760
:10249000B6B5B4B3B2B1B0AFAEADACABAAA9A8A853
:1024A000A7A6A5A4A3A3A2A1A09F9F9E9D9C9C9B21
:1024B0009A999998979796959594939392919190CC
:1024C0008F8F8E8E8D8C8C8B8B8A8989888887875D
:1024D0008685858484838382828181800000FF07D2
:1024E0000000F87F10F0004248BF4042B0FA80F38D
:1024F00010FA03F10AD0C3F11D0303F580634FEA1C
:10250000415002EB035202EBD12170474FF0000023
:1025100070470000DFF848C170B51CEA111E1EBFED
:102520001CEA13159EEA0C0F95EA0C0F00F06F8061
:1025300081EA030423EA4C134EEAD47E21EA4C11CB
:1025400041F4801143F48013AE44A1FB024CA0FB84
:102550000365AEF17F7E361955EB0C05A1FB034CEC
:102560004CF10003A0FB021C16EB0C06654153F175
:102570000003094218BF46F0010613F4007F0BD197
:102580004FEA03314FEA0530340341EA155140EA7E
:1025900016506FF003020AE04FEAC3214FEAC5204C
:1025A000F40241EA555140EA56506FF0020202EB44
:1025B0002E4201EB025585EACE710AD05FEA440C47
:1025C00018BF24F0004450F1000041F1000120EA5E
:1025D000D47040F2FE7C624500D270BDA84214BFA8
:1025E0004FF080444FF04044002E08BF0024BEF15D
:1025F000806FA8BFA1F1C041BDE8704080F2828029
:102600004FF0000001F1C04101F0004170479EEA27
:102610000C0F0CEA131518BF95EA0C0F06D04FF0FB
:10262000000081EA030E0EF0004170BD00F01CF8BE
:102630008900013E00F007B800F009B84FEA430CEA
:102640005FEA5C5C08D081EA030100F05BB84FEA06
:10265000410C5FEA5C5CF6D14FF000000149704725
:102660000000FF070000F87F0EF1020E2EF0030EAF
:102670005EF8046B364205D4012A43EB030515F5D9
:10268000001F12D8012841EB010C1CF5001F0CD8CB
:102690000ED14FEAD17C15F5001F0CEB4C0C0CF160
:1026A000020C08BF4CEBD37C04E04FF0080C01E0B7
:1026B0004FEAD37C0CEB4C0526FA05F606F007062C
:1026C000B6F1040C06D20EEB860CBDE870404CF05F
:1026D000010C6047DFE80CF0090B02024FF00041EB
:1026E0004FF00000A1F5002170BD194610460128E9
:1026F00051EB010418BFD4F5001484BF002001F091
:10270000004170BD0808A0F500114FEA3101704783
:1027100010B591EA030F48BF83F000433FF5EAACE0
:10272000841A71EB030C07D212198CF0004C43EBA6
:102730000C03001B61EB0C01DFF8A4E14FEA11541C
:10274000A4EB135C1EEA430F18BF9EEA445F00F03F
:10275000B08023EA6E03524221EA0451C3EB6E03B8
:1027600038BF5B1EDCF1200E25D322FA0CFE10EBE5
:102770000E0043FA0CFE41EB0E01CCF1200E03FAE1
:102780000EFE10EB0E0051F10001CCF1200E29D409
:1027900012FA0EF201EB0451BDE8104058BF704729
:1027A000401C1CBFB2F1004F704700280CBF491CF1
:1027B00020F00100704712EB020E43EB030218BF3A
:1027C0004FF0010E4EEA4202ACF1200CDCF11E0E7D
:1027D00054D943FA0CFE10EB0E0051F1FF31CCF14D
:1027E0001E0ED5D50EF1010E12FA0EFE404141EB40
:1027F000010101EB445C5FEA5C5C10D910EBDE7018
:1028000001EB045138BFBEF1004FBDE8104018BFC6
:10281000704700280CBF491C20F00100704730D2DF
:102820004FEAD42C11F5001124F400641BD0B1FA46
:1028300081F20B3AA41AA41ED2F12003914030FA7F
:1028400003F31943904001EBCC71002C01EB0451D0
:10285000BDE81040A8BF704701F1C0414FF0000033
:1028600001F000417047B0FA80F310FA03F100D193
:1028700010BDE41A173C4805C90AE4E701EB04510E
:1028800010BD491001EB0451BDE810404FEA300083
:1028900002E04FF0000170474A0008BF0042F8D044
:1028A000B2F5001F28BF704701F000414FF0000053
:1028B00070479EEA445F07D011EA5E0FBDE8104002
:1028C00004BF002100207047BDE8104070B5FFF73D
:1028D000CBFE00BF40DFF63E83F00041104670475C
:1028E0000000E0FF43004FEAD30C4FEA3C0C4340AA
:1028F0001FBF40070CF1605113F0FE4F70471CF0F2
:10290000006F03D100200CF0004170470CF0004331
:1029100043EA507010B540EACC0000F00EF800BF5A
:10292000000000924FEA0001FFF7ECBE4FF00041BB
:102930004FF00000A1F5002170470EF1020E2EF0BD
:10294000030E5EF8044B244204D44FEA4102B2F174
:102950007F4F11D84FEA4003B3F17F4F0CD80ED10F
:102960004FEAD07CB2F17F4F0CEB4C0C0CF1020C17
:1029700008BF4CEBD17C04E04FF0080C01E04FEABB
:10298000D17C0CEB4C0324FA03F404F00704B4F1FB
:10299000040C06D20EEB840CBDE810404CF0010C88
:1029A0006047DFE80CF0070802024FF00040A0F596
:1029B000800010BD0846420018BFD2F1807288BF67
:1029C00000F0004010BD4FF04070E1EE100A70477B
:1029D000FF2141EAD050C005704700000000000010
:1029E0000102000000000000FFFF000000000000E6
:1029F00000000000000000000000000001000000D6
:102A000000000000000000000000000001020304BC
:102A100006070809382A00080000002038000000D6
:102A2000E8010008702A0008380000206008000053
:102A30000402000861F5FFFF0000B442000000003E
:102A40000000000000020000000000000000000084
:102A5000000000000800000000000000000000006E
:102A60000100000010000000000000000024F4003D
:04000005080001AD41
:00000001FF
